:100000000C942A000C94A0000C9447000C94470018
:100010000C9447000C9447000C9447000C94470044
:100020000C9447000C9449000C9447000C94470032
:100030000C9447000C9447000C9447000C94470024
:100040000C9447000C9447000C9447000C94470014
:100050000C94470011241FBECFE5D4E0DEBFCDBF16
:1000600010E0A0E6B0E0E0E9F1E002C005900D92FA
:10007000A636B107D9F720E0A6E6B0E001C01D9290
:10008000AA36B207E1F70E94B9000C94C6000C949E
:1000900000001F920F920FB60F9211242F933F93DF
:1000A0008F939F93EF93FF9380E482BF80916600CC
:1000B0009091670001968D3023E0920729F090938C
:1000C00067008093660031C010926700109266004E
:1000D00083B381112AC0E0916800F0916900EE5964
:1000E000FF4F80818BBB2091680030916900809127
:1000F000600090916100820F931F8430910529F078
:10010000909369008093680004C010926900109277
:1001100068008091680090916900019631F483E055
:1001200090E09093690080936800FF91EF919F9118
:100130008F913F912F910F900FBE0F901F901895A8
:100140001F920F920FB60F9211248F939F9380915D
:100150006000909161009195819591099093610063
:10016000809360009F918F910F900FBE0F901F9012
:10017000189582E083BF80E482BF91E099BF8BBF76
:1001800015BE14BA8FE08ABB7894FFCFF894FFCFE6
:060190000100090A06054A
:00000001FF
