:100000000C942A000C9447000C9447000C94470071
:100010000C9447000C9447000C9447000C94470044
:100020000C9447000C9447000C9447000C94470034
:100030000C9447000C9447000C9447000C94470024
:100040000C9447000C9447000C9447000C94470014
:100050000C94470011241FBECFE5D4E0DEBFCDBF16
:1000600010E0A0E6B0E0EEEAFAE002C005900D92E2
:10007000A239B107D9F720E0A2E9B0E001C01D9292
:10008000A93BB207E1F70E9468010C9455050C9456
:1000900000002AB128612AB920B5266820BD9B013D
:1000A000AC0184E0220F331F441F551F8A95D1F7FE
:1000B00060E472E48FE090E00E941C028FEF820FF8
:1000C00089B9DA01C9010197A109B109892F9A2FCC
:1000D000AB2FBB2780BD08955F9BFECF8CB10895E9
:1000E0005D9BFECF8CB908950F931F93CF938C0126
:1000F000C0E0F801EC0FF11D8081882321F00E94FF
:100100007000CF5FF6CFCF911F910F91089588BBFC
:10011000D898D998DA9A0000DA988DEE92E0019793
:10012000F1F700C00000089588BBD89AD998DA9AF0
:100130000000DA9889EF90E00197F1F700C0000025
:1001400008958FEF8ABB87BB87E893E10197F1F7AA
:1001500000C0000088E30E9487008CE00E948700B6
:1001600086E00E94870081E00E94870080E80E946C
:10017000870080E00E94940081E00E94870080E870
:100180000C948700CF93DF93EC018991882319F0B9
:100190000E949400FACFDF91CF910895CF93DF931F
:1001A000EA01811106C060316CF4862F8F7080687F
:1001B00007C0813039F460312CF4862F8F70806C49
:1001C0000E948700CE01DF91CF910C94C20081E0A4
:1001D0000E94870080E80E94870080E00E949400CF
:1001E00081E00E94870080E80C9487008FE084BB48
:1001F0008FEF85BB089580E785BB8DEE92E0019778
:10020000F1F700C0000093B3907781E0903709F0D8
:1002100080E0089580E785BB8DEE92E00197F1F7CD
:1002200000C0000083B38077803759F087E893E1FE
:100230000197F1F700C0000093B3907781E0903709
:1002400009F480E00895CF930E940A01882351F1B8
:10025000E0E6F0E080E090E0C0E041E050E09A01AC
:10026000082E01C0220F0A94EAF7209525BBADEEB7
:10027000B2E01197F1F700C000009C9902C0C08164
:1002800006C09D9902C0C18102C09E9BC281019699
:1002900033968430910519F70E94FB008823E1F31F
:1002A0008C2F01C08FEFCF9108958091B5008833D6
:1002B00069F48091B600863349F48091B7008433A5
:1002C00029F481E09091B800923309F080E008951C
:1002D0000E94A1000E94F6006DE670E082EA90E0C4
:1002E0000E945C0280E80E94870082EA90E00E94FF
:1002F000C20011BA60E875E280E090E00E94490017
:10030000B12C07E710E082E9E82E80E0F82EC2EA7F
:10031000D0E096E8C92E90E0D92E9924939480914C
:10032000B400882309F10E946C008093B3000E94FE
:100330006C008093B20082EB90E00E943E029F939B
:100340008F931F930F93FF92EF920E946B0280ECAA
:100350000E94870082E990E00E94C2000F900F90F7
:100360000F900F900F900F900E942301A82E2FEF57
:100370008217A9F28AE2A816C9F01F92AF92DF9302
:10038000CF93DF92CF92DF93CF930E946B0280E8EE
:100390000E94870082EA90E00E94C2008DB79EB75B
:1003A00008960FB6F8949EBF0FBE8DBF8091B40023
:1003B000882331F08A2D0E9470008B2DB82EAFCF8C
:1003C00081E08B0DEB2DF0E0EB54FF4FA0828430E9
:1003D000A9F70E945501882389F0DB9A9FE32DE05D
:1003E00083E0915020408040E1F700C000009092EF
:1003F000B4000E94E7006BE870E00EC0DC9A9FE357
:100400002DE083E0915020408040E1F700C00000E3
:100410000E94E7006DE670E082EA90E00E945C02D4
:1004200080E80E94870082EA90E00E94C2008BB3BD
:1004300087708BBB80E0C2CFA1E21A2EAA1BBB1B28
:10044000FD010DC0AA1FBB1FEE1FFF1FA217B307A0
:10045000E407F50720F0A21BB30BE40BF50B661FB6
:10046000771F881F991F1A9469F76095709580957A
:1004700090959B01AC01BD01CF010895FC01882737
:100480009927E89421912032E9F3293010F02E3099
:10049000C8F32B3241F02D3239F4689404C00E9425
:1004A0006302820F911D219120532A30C0F31EF464
:1004B000909581959F4F0895FB01DC0101900D926D
:1004C0000020E1F708957AE0979F902D879F802D77
:1004D000910D11240895AEE0B0E0E1E7F2E00C9454
:1004E0002C050D891E8986E08C831A8309838FEF82
:1004F0009FE79E838D83AE01475E5F4F6F89788D46
:10050000CE0101960E948D02EF81F885E00FF11F68
:1005100010822E96E4E00C944805ABE0B0E0E3E9ED
:10052000F2E00C941E056C017B018A01FC0117822C
:100530001682838181FFCCC1CE0101963C01F60178
:100540009381F70193FD859193FF81917F0188232A
:1005500009F4BAC1853239F493FD859193FF8191F5
:100560007F01853229F4B60190E00E948404E7CF30
:10057000912C212C312CFFE1F315D8F08B3279F03E
:1005800038F4803279F08332A1F4232D20611DC02C
:100590008D3261F0803369F4232D216016C0832DE4
:1005A0008260382EE32DE4603E2E2AC0F32DF860E1
:1005B0001DC037FC2DC020ED280F2A3040F08E32B0
:1005C000B9F436FC81C1232D2064322E19C036FEC9
:1005D00006C08AE0989E200D1124922E11C0EAE0F8
:1005E0002E9E200D1124222EF32DF0623F2E08C0E6
:1005F0008C3621F4832D8068382E02C0883641F471
:10060000F70193FD859193FF81917F018111B3CF14
:10061000982F9F7D9554933028F40C5F1F4F9FE3D4
:1006200099830DC0833631F0833771F0833509F03B
:1006300059C021C0F801808189830E5F1F4F882433
:100640008394912C530113C02801F2E04F0E511CEA
:10065000F801A080B18036FE03C0692D70E002C0B1
:100660006FEF7FEFC5010E9479044C018201F32DE9
:10067000FF773F2E16C0280122E0420E511CF801E0
:10068000A080B18036FE03C0692D70E002C06FEF1C
:100690007FEFC5010E946E044C01F32DF0683F2EE0
:1006A000820133FC1BC0822D90E088169906B0F4BD
:1006B000B60180E290E00E9484042A94F4CFF50110
:1006C00037FC859137FE81915F01B60190E00E9471
:1006D000840421102A9421E0821A91088114910443
:1006E00071F7E8C0843611F0893641F5F80137FE1C
:1006F00007C060817181828193810C5F1F4F08C0A8
:1007000060817181072E000C880B990B0E5F1F4FC3
:10071000F32DFF763F2E97FF09C090958095709539
:1007200061957F4F8F4F9F4FF0683F2E2AE030E05A
:10073000A3010E94C004882E861845C0853731F475
:10074000232D2F7EB22E2AE030E025C0932D997FF5
:10075000B92E8F36C1F018F4883579F0B5C08037DE
:1007600019F0883721F0B0C0E92FE061BE2EB4FE49
:100770000DC0FB2DF460BF2E09C034FE0AC0292F26
:100780002660B22E06C028E030E005C020E130E04F
:1007900002C020E132E0F801B7FE07C0608171813C
:1007A000828193810C5F1F4F06C06081718180E060
:1007B00090E00E5F1F4FA3010E94C004882E861890
:1007C000FB2DFF773F2E36FE0DC0232D2E7FA22E50
:1007D000891458F434FE0BC032FC09C0832D8E7E80
:1007E000A82E05C0B82CA32C03C0B82C01C0B92C6E
:1007F000A4FE0FC0FE01E80DF11D8081803321F4BD
:100800009A2D997EA92E09C0A2FE06C0B394B39476
:1008100004C08A2D867809F0B394A3FC11C0A0FE11
:1008200006C0B21488F4280C922C9B180EC0B21487
:1008300060F4B60180E290E00E948404B394F7CFA4
:10084000B21418F42B1802C0982C212CA4FE10C04E
:10085000B60180E390E00E948404A2FE17C0A1FCD0
:1008600003C088E790E002C088E590E0B6010CC0C4
:100870008A2D867859F0A1FE02C08BE201C080E289
:10088000A7FC8DE2B60190E00E948404891438F43C
:10089000B60180E390E00E9484049A94F7CF8A9492
:1008A000F301E80DF11D8081B60190E00E948404FF
:1008B0008110F5CF222009F442CEB60180E290E00B
:1008C0000E9484042A94F6CFF6018681978102C0A3
:1008D0008FEF9FEF2B96E2E10C943A05FC01059017
:1008E000615070400110D8F7809590958E0F9F1F32
:1008F0000895FC016150704001900110D8F7809577
:1009000090958E0F9F1F08950F931F93CF93DF93A2
:10091000FB01238121FD03C08FEF9FEF2CC022FF3D
:1009200016C046815781248135814217530744F40C
:10093000A081B1819D012F5F3F4F318320838C9334
:10094000268137812F5F3F4F3783268314C08B0169
:10095000EC01FB010084F185E02D0995892BE1F67E
:10096000D80116968D919C911797019617969C9396
:100970008E931697CE01DF91CF911F910F9108951D
:10098000FA01AA27283051F1203181F1E8946F93C0
:100990006E7F6E5F7F4F8F4F9F4FAF4FB1E03ED066
:1009A000B4E03CD0670F781F891F9A1FA11D680F04
:1009B000791F8A1F911DA11D6A0F711D811D911D37
:1009C000A11D20D009F468943F912AE0269F1124AC
:1009D0003019305D3193DEF6CF010895462F477010
:1009E000405D4193B3E00FD0C9F7F6CF462F4F706B
:1009F000405D4A3318F0495D31FD4052419302D0C9
:100A0000A9F7EACFB4E0A69597958795779567956E
:100A1000BA95C9F700976105710508959B01AC016E
:100A20000A2E06945795479537952795BA95C9F795
:100A3000620F731F841F951FA01D08952F923F9270
:100A40004F925F926F927F928F929F92AF92BF92DE
:100A5000CF92DF92EF92FF920F931F93CF93DF938A
:100A6000CDB7DEB7CA1BDB0B0FB6F894DEBF0FBEE7
:100A7000CDBF09942A88398848885F846E847D8434
:100A80008C849B84AA84B984C884DF80EE80FD8036
:100A90000C811B81AA81B981CE0FD11D0FB6F894AC
:0E0AA000DEBF0FBECDBFED010895F894FFCF6D
:100AAE002A3023373839343536313233007061739A
:100ABE0073776F72643A0074656D707261747572DB
:100ACE00653A202564002573256300737465707381
:020ADE003A00DC
:00000001FF
