:100000000C942A000C9447000C9447000C94470071
:100010000C9447000C9447000C9447000C94470044
:100020000C9447000C9447000C9447000C94470034
:100030000C9447000C9447000C9447000C94470024
:100040000C9447000C9447000C9447000C94470014
:100050000C94470011241FBECFE5D4E0DEBFCDBF16
:1000600010E0A0E6B0E0E6E4F3E002C005900D92F7
:10007000A436B107D9F720E0A4E6B0E001C01D9294
:10008000A836B207E1F70E9423010C94A1010C9459
:1000900000002AB128612AB920B5266820BD9B013D
:1000A000AC0184E0220F331F441F551F8A95D1F7FE
:1000B00060E472E48FE090E00E9459018FEF820FBC
:1000C00089B9DA01C9010197A109B109892F9A2FCC
:1000D000AB2FBB2780BD08955F9BFECF8CB10895E9
:1000E0005D9BFECF8CB908950F931F93CF938C0126
:1000F000C0E0F801EC0FF11D8081882321F00E94FF
:100100007000CF5FF6CFCF911F910F91089588BBFC
:10011000DF98DE98DD9A0000DD988DEE92E0019781
:10012000F1F700C00000089588BBDF9ADE98DD9AE1
:100130000000DD9889EF90E00197F1F700C0000022
:1001400008958FEF8ABB87BB87E893E10197F1F7AA
:1001500000C0000088E30E9487008CE00E948700B6
:1001600086E00E94870081E00E94870080E80E946C
:10017000870080E00E94940081E00E94870080E870
:100180000C948700CF93DF93EC018991882319F0B9
:100190000E949400FACFDF91CF910895CF93DF931F
:1001A000EA01811106C060316CF4862F8F7080687F
:1001B00007C0813039F460312CF4862F8F70806C49
:1001C0000E948700CE01DF91CF910C94C20081E0A4
:1001D0000E94870080E80E94870080E00E949400CF
:1001E00081E00E94870080E80C948700FC0140E0D9
:1001F00050E04E175F0734F52FED82E292E0215078
:1002000080409040E1F700C0000080916400909130
:100210006500049721F4109265001092640020910B
:10022000640030916500B9016F5F7F4F7093650086
:1002300060936400D901A05ABF4F9C919BBB4F5F54
:100240005F4FD7CF0895CF93DF93CDB7DEB72A970F
:100250000FB6F894DEBF0FBECDBF11BA8FE08ABBD8
:1002600060E875E280E090E00E9449000E94A100F1
:100270000E946C00182F0E9494001A3239F4CE01AB
:1002800001960E947B010E94F600F2CF80916600E9
:10029000909167009C012F5F3F4F30936700209340
:1002A0006600E1E0F0E0EC0FFD1FE80FF91F10839E
:1002B000DFCFA1E21A2EAA1BBB1BFD010DC0AA1F96
:1002C000BB1FEE1FFF1FA217B307E407F50720F0BF
:1002D000A21BB30BE40BF50B661F771F881F991F3A
:1002E0001A9469F760957095809590959B01AC0183
:1002F000BD01CF010895FC0188279927E894219139
:100300002032E9F3293010F02E30C8F32B3241F0BF
:100310002D3239F4689404C00E949901820F911D16
:10032000219120532A30C0F31EF4909581959F4F60
:1003300008957AE0979F902D879F802D910D11242D
:060340000895F894FFCFC0
:0403460004020801A4
:00000001FF
