:100000000C942A000C9447000C9447000C94470071
:100010000C9447000C9447000C9447000C94470044
:100020000C9447000C9447000C9447000C94470034
:100030000C9447000C9447000C9447000C94470024
:100040000C9447000C9447000C9447000C94470014
:100050000C94470011241FBECFE5D4E0DEBFCDBF16
:1000600010E0A0E6B0E0EEE5F2E002C005900D92EF
:10007000A436B107D9F720E0A4E6B0E001C01D9294
:10008000A836B207E1F70E94B4000C942D010C943D
:1000900000002AB128612AB920B5266820BD9B013D
:1000A000AC0184E0220F331F441F551F8A95D1F7FE
:1000B00060E472E48FE090E00E94E5008FEF820F31
:1000C00089B9DA01C9010197A109B109892F9A2FCC
:1000D000AB2FBB2780BD08955F9BFECF8CB10895E9
:1000E0005D9BFECF8CB908950F931F93CF938C0126
:1000F000C0E0F801EC0FF11D8081882321F00E94FF
:100100007000CF5FF6CFCF911F910F910895FC0142
:1001100040E050E04E175F0734F52FED82E292E0A9
:10012000215080409040E1F700C0000080916400C1
:1001300090916500049721F410926500109264007C
:100140002091640030916500B9016F5F7F4F70931B
:10015000650060936400D901A05ABF4F9C919BBB7E
:100160004F5F5F4FD7CF0895CF93DF93CDB7DEB703
:100170002A970FB6F894DEBF0FBECDBF11BA8FE03D
:100180008ABB60E875E280E090E00E9449000E942E
:100190006C008D3039F4CE0101960E9407010E9457
:1001A0008700F5CF2091660030916700A9014F5F6D
:1001B0005F4F5093670040936600E1E0F0E0EC0F82
:1001C000FD1FE20FF31F8083E2CFA1E21A2EAA1BCC
:1001D000BB1BFD010DC0AA1FBB1FEE1FFF1FA217F7
:1001E000B307E407F50720F0A21BB30BE40BF50BF4
:1001F000661F771F881F991F1A9469F7609570957D
:10020000809590959B01AC01BD01CF010895FC0143
:1002100088279927E89421912032E9F3293010F0BA
:100220002E30C8F32B3241F02D3239F4689404C0DB
:100230000E942501820F911D219120532A30C0F385
:100240001EF4909581959F4F08957AE0979F902D89
:0E025000879F802D910D11240895F894FFCF03
:04025E00040208018D
:00000001FF
