:100000000C942A000C9447000C9447000C94470071
:100010000C9447000C9447000C9447000C94470044
:100020000C94A9000C9447000C9447000C944700D2
:100030000C9447000C9447000C9447000C94470024
:100040000C9447000C9447000C9447000C94470014
:100050000C94470011241FBECFE5D4E0DEBFCDBF16
:1000600010E0A0E6B0E0EEE3F2E002C005900D92F1
:10007000AC36B107D9F720E0ACE6B0E001C01D9284
:10008000A437B207E1F70E940C010C941D010C94F7
:100090000000209172003091730080917000909167
:1000A00071002930310561F589309105F9F420910D
:1000B0006E0030916F0029303105C1F420916C0041
:1000C00030916D002930310589F41092730010923F
:1000D0007200109271001092700010926F001092D6
:1000E0006E0010926D0010926C00089510927300D3
:1000F00010927200019690937100809370000895A1
:10010000099769F4109271001092700080916E004E
:1001100090916F00019690936F0080936E00809194
:100120006E0090916F00099769F410926F00109221
:100130006E0080916C0090916D00019690936D001F
:1001400080936C002F5F3F4F3093730020937200B9
:1001500008951F920F920FB60F9211242F933F9381
:100160004F935F936F937F938F939F93AF93BF93BF
:10017000EF93FF9380916000843061F4E09172000E
:10018000F0917300EF59FF4F808185BB88E082BBFF
:1001900083E00DC0833071F4E0917000F091710044
:1001A000EF59FF4F808185BB84E082BB82E0809362
:1001B00060001DC0823059F4E0916E00F0916F0034
:1001C000EF59FF4F908195BB82BB81E0F0CF81302A
:1001D00071F4E0916C00F0916D00EF59FF4F908148
:1001E00095BB82BB84E0809360000E94490084EF4D
:1001F0009BEF9DBD8CBDFF91EF91BF91AF919F9102
:100200008F917F916F915F914F913F912F910F90BF
:100210000FBE0F901F90189584EF9BEF9DBD8CBD76
:100220001FBC85E08EBD84E089BF78948FEF84BBCE
:0E02300080EC85BB8FE081BBFFCFF894FFCF41
:0C023E0004C0F9A4B0999282F8809000EE
:00000001FF
