:100000000C942A000C9471010C9447000C94470046
:100010000C9438020C9447000C9447000C94470051
:100020000C941D010C9447000C9447000C9447005D
:100030000C9447000C9447000C9447000C94470024
:100040000C9447000C9447000C9447000C94470014
:100050000C94470011241FBECFE5D4E0DEBFCDBF16
:1000600010E0A0E6B0E0ECEDFBE002C005900D92E0
:10007000A03CB107D9F720E0A0ECB0E001C01D9290
:10008000A43FB207E1F70E94E0020C94EC050C9447
:10009000000088BBD898D998DA9A0000DA9881E2F3
:1000A0008A95F1F7089588BBD89AD998DA9A000012
:1000B000DA988BE08A95F1F708958FEF8ABB8FE786
:1000C00087BBB799FECF88E30E9449008CE00E946D
:1000D000490086E00E94490081E00E94490080E8D2
:1000E0000C944900CF93DF93EC018991882319F098
:1000F0000E945300FACFDF91CF910895CF93DF9301
:10010000EA01811106C060316CF4862F8F7080681F
:1001100007C0813039F460312CF4862F8F70806CE9
:100120000E944900CE01DF91CF910C94720081E0D2
:100130000E94490080E80C94490020EF3FEF4FEE09
:100140005FED6FEB9FE724BB35BB85B38F7085BB3D
:10015000000083B38F708093ED008F30B1F78AED8C
:100160008A95F1F700C083B38F708093ED008F30D4
:10017000B1F3E7E4F1E03197F1F700C083B38F709A
:100180008093ED008F3059F345BB000083B38F702F
:100190008093ED008F3019F01092EC0020C055BB19
:1001A000000083B38F708093ED008F3011F081E0F9
:1001B00014C065BB000083B38F708093ED008F3057
:1001C00011F082E00AC095BB000083B38F7080936A
:1001D000ED008F3009F4B7CF83E08093EC0090916D
:1001E000ED008091EC009E3011F490E01CC09D3039
:1001F00059F490E0FC01EE0FFF1F8E0F9F1FFC01D2
:10020000EB59FF4F818108959B3059F490E0FC0138
:10021000EE0FFF1F8E0F9F1FFC01EB59FF4F8281D6
:10022000089590E00196FC01EE0FFF1F8E0F9F1FB7
:10023000FC01EB59FF4F808108951F920F920FB67A
:100240000F9211242F933F934F935F936F937F935C
:100250008F939F93AF93BF93EF93FF938091F000A1
:100260009091F10001968F30910529F09093F10063
:100270008093F00021C01092F1001092F000809164
:10028000C1008823C9F08091C000811115C0809100
:10029000EE009091EF0001979093EF008093EE00B5
:1002A000892B51F4DB9A61E770E082EC90E00E94C8
:1002B000FB0281E08093C00080E492E49DBD8CBD90
:1002C000FF91EF91BF91AF919F918F917F916F912E
:1002D0005F914F913F912F910F900FBE0F901F9004
:1002E00018951F920F920FB60F9211242F933F93E0
:1002F0004F935F936F937F938F939F93AF93BF932E
:10030000EF93FF93989B45C09091C10081E08927AE
:100310008093C1008823B1F120916100022E000C6E
:10032000330B80916200281B310987FD339580E1F2
:100330009EE0289FA001299F500D389F500D112449
:1003400020916000022E000C330B80916300281B6B
:10035000310987FD33956CE3629FC001639F900D67
:100360001124840F951F20916400821B910927FDA1
:1003700093959093EF008093EE001092C00062E896
:1003800070E002C06CE870E081ED90E00E94FB023A
:10039000DB98999B05C0809161008F5F809361001D
:1003A00080916100883111F4109261009A9B07C01E
:1003B00080916100815008F488E1809361009B9BEB
:1003C0000AC0809160008F5F8C3319F080936000C9
:1003D00002C0109260009C9B07C080916000815019
:1003E00008F48BE3809360008091C100882319F0AA
:1003F00062E870E002C06CE870E081ED90E00E947D
:10040000FB0280916000282F082E000C330B3F93D5
:100410008F9380916100282F082E000C330B3F939F
:100420008F9381ED90E09F938F9387E990E09F9366
:100430008F9382EC90E09F938F930E9402038DB77D
:100440009EB70A960FB6F8949EBF0FBE8DBFFF9160
:10045000EF91BF91AF919F918F917F916F915F913C
:100460004F913F912F910F900FBE0F901F901895B5
:100470001F920F920FB60F9211242F933F934F9319
:100480005F936F937F938F939F93AF93BF93CF931C
:10049000EF93FF938091F2009091F300883E21E06A
:1004A000920709F074C0809164008F5F8C3319F05B
:1004B0008093640007C010926400809163008F5F96
:1004C00080936300809163008C3339F41092630051
:1004D000809162008F5F809362008091620088311A
:1004E00011F410926200C0916200CC303CF464EAD6
:1004F00070E089ED90E00E94FB0209C067EA70E0BD
:1005000089ED90E00E94FB02CC3009F0CC50C09302
:10051000EB0089ED90E09F938F9380916400282FEA
:10052000082E000C330B3F938F9380916300282F8C
:10053000082E000C330B3F938F938C2F0C2E000C46
:10054000990B9F93CF938AEA90E09F938F938CEDC2
:1005500090E09F938F930E9402030E9497008CED7E
:1005600090E00E94720080EC0E94490082EC90E0D2
:100570000E9472001092F3001092F2008DB79EB7A5
:100580000C960FB6F8949EBF0FBE8DBF05C00196A6
:100590009093F3008093F20088E484BDFF91EF9183
:1005A000CF91BF91AF919F918F917F916F915F910B
:1005B0004F913F912F910F900FBE0F901F90189564
:1005C0000E945D0082E085BD89B7806489BF88E4B0
:1005D00084BD80E48BBF83E085BF1FBC81E08EBDFE
:1005E00089B7846089BF80E492E49DBD8CBD789416
:1005F00014BA13BAFFCFFB01DC0101900D92002069
:10060000E1F70895AEE0B0E0E8E0F3E00C94C30554
:100610000D891E8986E08C831A8309838FEF9FE7FB
:100620009E838D83AE01475E5F4F6F89788DCE01CB
:1006300001960E942403EF81F885E00FF11F1082DC
:100640002E96E4E00C94DF05ABE0B0E0EAE2F3E0E4
:100650000C94B5056C017B018A01FC01178216829E
:10066000838181FFCCC1CE0101963C01F6019381CB
:10067000F70193FD859193FF81917F01882309F410
:10068000BAC1853239F493FD859193FF81917F0141
:10069000853229F4B60190E00E941B05E7CF912C2A
:1006A000212C312CFFE1F315D8F08B3279F038F49E
:1006B000803279F08332A1F4232D20611DC08D3268
:1006C00061F0803369F4232D216016C0832D826090
:1006D000382EE32DE4603E2E2AC0F32DF8601DC0B5
:1006E00037FC2DC020ED280F2A3040F08E32B9F4AF
:1006F00036FC81C1232D2064322E19C036FE06C07F
:100700008AE0989E200D1124922E11C0EAE02E9EC0
:10071000200D1124222EF32DF0623F2E08C08C36BE
:1007200021F4832D8068382E02C0883641F4F70109
:1007300093FD859193FF81917F018111B3CF982F14
:100740009F7D9554933028F40C5F1F4F9FE399834E
:100750000DC0833631F0833771F0833509F059C00D
:1007600021C0F801808189830E5F1F4F8824839404
:10077000912C530113C02801F2E04F0E511CF801D7
:10078000A080B18036FE03C0692D70E002C06FEF1B
:100790007FEFC5010E9410054C018201F32DFF7708
:1007A0003F2E16C0280122E0420E511CF801A08005
:1007B000B18036FE03C0692D70E002C06FEF7FEF9D
:1007C000C5010E9405054C01F32DF0683F2E820102
:1007D00033FC1BC0822D90E088169906B0F4B60158
:1007E00080E290E00E941B052A94F4CFF50137FCCB
:1007F000859137FE81915F01B60190E00E941B0553
:1008000021102A9421E0821A91088114910471F731
:10081000E8C0843611F0893641F5F80137FE07C08B
:1008200060817181828193810C5F1F4F08C060815C
:100830007181072E000C880B990B0E5F1F4FF32D53
:10084000FF763F2E97FF09C0909580957095619532
:100850007F4F8F4F9F4FF0683F2E2AE030E0A3017B
:100860000E945705882E861845C0853731F4232D00
:100870002F7EB22E2AE030E025C0932D997FB92E2D
:100880008F36C1F018F4883579F0B5C0803719F08B
:10089000883721F0B0C0E92FE061BE2EB4FE0DC054
:1008A000FB2DF460BF2E09C034FE0AC0292F26603C
:1008B000B22E06C028E030E005C020E130E002C0E2
:1008C00020E132E0F801B7FE07C0608171818281CA
:1008D00093810C5F1F4F06C06081718180E090E0C2
:1008E0000E5F1F4FA3010E945705882E8618FB2D0F
:1008F000FF773F2E36FE0DC0232D2E7FA22E8914AA
:1009000058F434FE0BC032FC09C0832D8E7EA82E15
:1009100005C0B82CA32C03C0B82C01C0B92CA4FE70
:100920000FC0FE01E80DF11D8081803321F49A2D66
:10093000997EA92E09C0A2FE06C0B394B39404C048
:100940008A2D867809F0B394A3FC11C0A0FE06C0DE
:10095000B21488F4280C922C9B180EC0B21460F4C8
:10096000B60180E290E00E941B05B394F7CFB21469
:1009700018F42B1802C0982C212CA4FE10C0B6012C
:1009800080E390E00E941B05A2FE17C0A1FC03C0FB
:1009900088E790E002C088E590E0B6010CC08A2D9F
:1009A000867859F0A1FE02C08BE201C080E2A7FC6C
:1009B0008DE2B60190E00E941B05891438F4B6015F
:1009C00080E390E00E941B059A94F7CF8A94F3018C
:1009D000E80DF11D8081B60190E00E941B05811099
:1009E000F5CF222009F442CEB60180E290E00E94C9
:1009F0001B052A94F6CFF6018681978102C08FEFFE
:100A00009FEF2B96E2E10C94D105FC01059061501B
:100A100070400110D8F7809590958E0F9F1F089514
:100A2000FC016150704001900110D8F780959095BD
:100A30008E0F9F1F08950F931F93CF93DF93FB019A
:100A4000238121FD03C08FEF9FEF2CC022FF16C032
:100A500046815781248135814217530744F4A08190
:100A6000B1819D012F5F3F4F318320838C9326817D
:100A700037812F5F3F4F3783268314C08B01EC01F2
:100A8000FB010084F185E02D0995892BE1F6D80161
:100A900016968D919C911797019617969C938E931D
:100AA0001697CE01DF91CF911F910F910895FA0112
:100AB000AA27283051F1203181F1E8946F936E7F9D
:100AC0006E5F7F4F8F4F9F4FAF4FB1E03ED0B4E08E
:100AD0003CD0670F781F891F9A1FA11D680F791FCF
:100AE0008A1F911DA11D6A0F711D811D911DA11DE0
:100AF00020D009F468943F912AE0269F11243019F0
:100B0000305D3193DEF6CF010895462F4770405D8A
:100B10004193B3E00FD0C9F7F6CF462F4F70405D39
:100B20004A3318F0495D31FD4052419302D0A9F794
:100B3000EACFB4E0A6959795879577956795BA958E
:100B4000C9F700976105710508959B01AC010A2E54
:100B500006945795479537952795BA95C9F7620F2B
:100B6000731F841F951FA01D08952F923F924F92CF
:100B70005F926F927F928F929F92AF92BF92CF922D
:100B8000DF92EF92FF920F931F93CF93DF93CDB736
:100B9000DEB7CA1BDB0B0FB6F894DEBF0FBECDBFAE
:100BA00009942A88398848885F846E847D848C847F
:100BB0009B84AA84B984C884DF80EE80FD800C8188
:100BC0001B81AA81B981CE0FD11D0FB6F894DEBF6B
:0C0BD0000FBECDBFED010895F894FFCFDB
:100BDC0038131539283132333435363738392A3011
:100BEC002320414C41524D205452494747455245D0
:100BFC00440020414C41524D204F4E0020414C416D
:100C0C00524D204F464600257320253032643A253C
:100C1C0030326400414D00504D00202025303264AC
:100C2C003A253032643A2530326420202573000096
:00000001FF
