:100000000C942A000C943F000C943F000C943F0089
:100010000C943F000C943F000C943F000C943F0064
:100020000C9441000C943F000C943F000C943F0052
:100030000C943F000C943F000C943F000C943F0044
:100040000C943F000C943F000C943F000C943F0034
:100050000C943F0011241FBECFE5D4E0DEBFCDBF1E
:1000600010E0A0E6B0E0E6E0F1E002C005900D92FD
:10007000AC36B107D9F70E9472000C9481000C9441
:1000800000001F920F920FB60F9211248F939F932F
:10009000EF93FF9380916000909161000A9721F4A3
:1000A0001092610010926000E0916000F091610098
:1000B000EE59FF4F808182BB80916000909161007A
:1000C0000196909361008093600086EE99EF9DBD4C
:1000D0008CBDFF91EF919F918F910F900FBE0F906C
:1000E0001F90189586EE99EF9DBD8CBD1FBC85E0D5
:1000F0008EBD84E089BF78948FEF81BB80EC82BB9A
:06010000FFCFF894FFCFD1
:0C0106000100C0F9A4B0999282F880902A
:00000001FF
