:100000000C942A000C9472010C9447000C94470045
:100010000C942B010C9447000C9447000C9447005F
:100020000C9447000C949E000C9447000C944700DD
:100030000C9447000C9447000C9447000C94470024
:100040000C9447000C9447000C9447000C94470014
:100050000C94470011241FBECFE5D4E0DEBFCDBF16
:1000600010E0A0E6B0E0E2EBFBE002C005900D92EC
:10007000AC38B107D9F720E0ACE8B0E001C01D9280
:10008000A43AB207E1F70E94A1010C94D7050C94A1
:10009000000088BBDF98DE98DD9A0000DD9881E2E1
:1000A0008A95F1F7089588BBDF9ADE98DD9A000003
:1000B000DD988BE08A95F1F708958AB3806E8ABB4C
:1000C0008FE787BBB799FECF88E30E9449008CE099
:1000D0000E94490086E00E94490081E00E94490098
:1000E00080E80C944900CF93DF93EC018991882339
:1000F00019F00E945300FACFDF91CF910895CF936A
:10010000DF93EA01811106C060316CF4862F8F7095
:10011000806807C0813039F460312CF4862F8F70ED
:10012000806C0E944900CE01DF91CF910C94730046
:1001300081E00E94490080E80C9449001F920F92D0
:100140000FB60F9211242F933F934F935F936F93AA
:100150007F938F939F93AF93BF93CF93DF93EF934F
:10016000FF938091A2009091A300883E21E0920726
:1001700009F057C0369A349BFECF64B175B180E068
:1001800090E00E94F20123E23BED49EF5EE30E9422
:1001900058020E94BC0160939100709392007F937B
:1001A0006F9386E690E09F938F93C3E9D0E0DF934F
:1001B000CF930E94ED020E949800CE010E9473002E
:1001C00080EC0E944900809161008F9380916000D3
:1001D0008F9389E790E09F938F93DF93CF930E9453
:1001E000ED02CE010E94730081E02DB73EB7245F7F
:1001F0003F4F0FB6F8943EBF0FBE2DBF4091910008
:100200005091920020916000309161004217530795
:100210000CF480E080938C001092A3001092A20056
:1002200005C001969093A3008093A20088E482BF4A
:10023000FF91EF91DF91CF91BF91AF919F918F91FE
:100240007F916F915F914F913F912F910F900FBED2
:100250000F901F9018951F920F920FB60F921124B6
:100260002F933F938F939F93EF93FF9380918D00F4
:1002700090918E008239910519F580918C00882328
:10028000D1F080918F00909190009C012F5F3F4FA3
:100290003093900020938F00FC01EE59FF4F808136
:1002A0008BBB80918F0090919000049721F4109265
:1002B000900010928F0010928E0010928D0005C059
:1002C000019690938E0080938D008CE784BDFF9102
:1002D000EF919F918F913F912F910F900FBE0F90B3
:1002E0001F9018951F920F920FB60F9211248F93A3
:1002F0009F9380B390E0880F892F881F990B0197F7
:1003000031F4809160009091610001970FC080B33B
:1003100090E0689415F8959587951694E1F7019704
:1003200049F4809160009091610001969093610082
:10033000809360009F918F910F900FBE0F901F9040
:10034000189587E886B980E487B98BBF83E085BFBD
:1003500092E093BF89B7816089BF88E482BF95BD71
:1003600089B7806489BF8CE784BD11BA8EEF8ABBE0
:100370000E945D007894FFCF0E94C3016894B11180
:100380000C94520208950E94370288F09F5798F00B
:10039000B92F9927B751B0F0E1F0660F771F881F8A
:1003A000991F1AF0BA95C9F714C0B13091F00E94A4
:1003B0005102B1E008950C945102672F782F8827DD
:1003C000B85F39F0B93FCCF3869577956795B395CB
:1003D000D9F73EF490958095709561957F4F8F4F3A
:1003E0009F4F0895E89409C097FB3EF4909580953F
:1003F000709561957F4F8F4F9F4F9923A9F0F92FEB
:1004000096E9BB279395F695879577956795B79568
:10041000F111F8CFFAF4BB0F11F460FF1BC06F5F4E
:100420007F4F8F4F9F4F16C0882311F096E911C060
:10043000772321F09EE8872F762F05C0662371F081
:1004400096E8862F70E060E02AF09A95660F771F95
:10045000881FDAF7880F9695879597F9089557FDC5
:100460009058440F551F59F05F3F71F04795880F22
:1004700097FB991F61F09F3F79F0879508951216B9
:1004800013061406551FF2CF4695F1DF08C0161665
:1004900017061806991FF1CF869571056105089416
:1004A0000895E894BB2766277727CB0197F908952D
:1004B0000E946B020C94DC020E94CE0238F00E9473
:1004C000D50220F0952311F00C94C5020C94CB02B8
:1004D00011240C9452020E942F0270F3959FC1F3D5
:1004E000950F50E0551F629FF001729FBB27F00DE2
:1004F000B11D639FAA27F00DB11DAA1F649F662737
:10050000B00DA11D661F829F2227B00DA11D621F85
:10051000739FB00DA11D621F839FA00D611D221F3F
:10052000749F3327A00D611D231F849F600D211D23
:10053000822F762F6A2F11249F5750409AF0F1F0A6
:1005400088234AF0EE0FFF1FBB1F661F771F881F0F
:1005500091505040A9F79E3F510580F00C94C50280
:100560000C9452025F3FE4F3983ED4F3869577955E
:100570006795B795F795E7959F5FC1F7FE2B880FB5
:10058000911D9695879597F9089597F99F6780E84B
:1005900070E060E008959FEF80EC089500240A94D5
:1005A0001616170618060906089500240A9412164E
:1005B0001306140605060895092E0394000C11F481
:1005C000882352F0BB0F40F4BF2B11F460FF04C02E
:1005D0006F5F7F4F8F4F9F4F0895AEE0B0E0E3EF26
:1005E000F2E00C94AE050D891E8986E08C831A8397
:1005F00009838FEF9FE79E838D83AE01475E5F4F38
:100600006F89788DCE0101960E940F03EF81F885E6
:10061000E00FF11F10822E96E4E00C94CA05ABE0C7
:10062000B0E0E5E1F3E00C94A0056C017B018A01E8
:10063000FC0117821682838181FFCCC1CE01019615
:100640003C01F6019381F70193FD859193FF819120
:100650007F01882309F4BAC1853239F493FD85916D
:1006600093FF81917F01853229F4B60190E00E94C9
:100670000605E7CF912C212C312CFFE1F315D8F0A2
:100680008B3279F038F4803279F08332A1F4232D63
:1006900020611DC08D3261F0803369F4232D21600B
:1006A00016C0832D8260382EE32DE4603E2E2AC0D2
:1006B000F32DF8601DC037FC2DC020ED280F2A3027
:1006C00040F08E32B9F436FC81C1232D2064322EE5
:1006D00019C036FE06C08AE0989E200D1124922E85
:1006E00011C0EAE02E9E200D1124222EF32DF0627F
:1006F0003F2E08C08C3621F4832D8068382E02C02E
:10070000883641F4F70193FD859193FF81917F0134
:100710008111B3CF982F9F7D9554933028F40C5FAF
:100720001F4F9FE399830DC0833631F0833771F0FB
:10073000833509F059C021C0F801808189830E5F9B
:100740001F4F88248394912C530113C02801F2E099
:100750004F0E511CF801A080B18036FE03C0692DF8
:1007600070E002C06FEF7FEFC5010E94FB044C01F7
:100770008201F32DFF773F2E16C0280122E0420EA2
:10078000511CF801A080B18036FE03C0692D70E0D5
:1007900002C06FEF7FEFC5010E94F0044C01F32D02
:1007A000F0683F2E820133FC1BC0822D90E088163A
:1007B0009906B0F4B60180E290E00E9406052A9402
:1007C000F4CFF50137FC859137FE81915F01B601C9
:1007D00090E00E94060521102A9421E0821A9108D7
:1007E0008114910471F7E8C0843611F0893641F51F
:1007F000F80137FE07C060817181828193810C5FAF
:100800001F4F08C060817181072E000C880B990B67
:100810000E5F1F4FF32DFF763F2E97FF09C0909577
:100820008095709561957F4F8F4F9F4FF0683F2E59
:100830002AE030E0A3010E944205882E861845C0B8
:10084000853731F4232D2F7EB22E2AE030E025C0EB
:10085000932D997FB92E8F36C1F018F4883579F031
:10086000B5C0803719F0883721F0B0C0E92FE061BA
:10087000BE2EB4FE0DC0FB2DF460BF2E09C034FEA9
:100880000AC0292F2660B22E06C028E030E005C03D
:1008900020E130E002C020E132E0F801B7FE07C0FD
:1008A00060817181828193810C5F1F4F06C06081DE
:1008B000718180E090E00E5F1F4FA3010E9442050E
:1008C000882E8618FB2DFF773F2E36FE0DC0232D78
:1008D0002E7FA22E891458F434FE0BC032FC09C0BE
:1008E000832D8E7EA82E05C0B82CA32C03C0B82C57
:1008F00001C0B92CA4FE0FC0FE01E80DF11D8081DE
:10090000803321F49A2D997EA92E09C0A2FE06C03B
:10091000B394B39404C08A2D867809F0B394A3FCF1
:1009200011C0A0FE06C0B21488F4280C922C9B18AB
:100930000EC0B21460F4B60180E290E00E94060599
:10094000B394F7CFB21418F42B1802C0982C212CB2
:10095000A4FE10C0B60180E390E00E940605A2FE4E
:1009600017C0A1FC03C088E790E002C088E590E0D2
:10097000B6010CC08A2D867859F0A1FE02C08BE228
:1009800001C080E2A7FC8DE2B60190E00E9406055E
:10099000891438F4B60180E390E00E9406059A9429
:1009A000F7CF8A94F301E80DF11D8081B60190E044
:1009B0000E9406058110F5CF222009F442CEB6012F
:1009C00080E290E00E9406052A94F6CFF601868127
:1009D000978102C08FEF9FEF2B96E2E10C94BC054C
:1009E000FC010590615070400110D8F780959095FA
:1009F0008E0F9F1F0895FC016150704001900110FF
:100A0000D8F7809590958E0F9F1F08950F931F9391
:100A1000CF93DF93FB01238121FD03C08FEF9FEF75
:100A20002CC022FF16C04681578124813581421790
:100A3000530744F4A081B1819D012F5F3F4F318363
:100A400020838C93268137812F5F3F4F3783268306
:100A500014C08B01EC01FB010084F185E02D0995A8
:100A6000892BE1F6D80116968D919C9117970196E6
:100A700017969C938E931697CE01DF91CF911F917D
:100A80000F910895FA01AA27283051F1203181F100
:100A9000E8946F936E7F6E5F7F4F8F4F9F4FAF4F86
:100AA000B1E03ED0B4E03CD0670F781F891F9A1F99
:100AB000A11D680F791F8A1F911DA11D6A0F711D4D
:100AC000811D911DA11D20D009F468943F912AE059
:100AD000269F11243019305D3193DEF6CF01089541
:100AE000462F4770405D4193B3E00FD0C9F7F6CF72
:100AF000462F4F70405D4A3318F0495D31FD40523A
:100B0000419302D0A9F7EACFB4E0A69597958795CF
:100B100077956795BA95C9F70097610571050895AE
:100B20009B01AC010A2E069457954795379527955A
:100B3000BA95C9F7620F731F841F951FA01D0895F2
:100B40002F923F924F925F926F927F928F929F92DD
:100B5000AF92BF92CF92DF92EF92FF920F931F93CB
:100B6000CF93DF93CDB7DEB7CA1BDB0B0FB6F8947C
:100B7000DEBF0FBECDBF09942A88398848885F84BC
:100B80006E847D848C849B84AA84B984C884DF802D
:100B9000EE80FD800C811B81AA81B981CE0FD11D11
:100BA0000FB6F894DEBF0FBECDBFED010895F894E7
:020BB000FFCF75
:100BB2003200100804022074656D706572617475EC
:100BC20072653D2025303264002068797374657245
:0C0BD200657369733D202530326400001B
:00000001FF
