:100000000C942A000C9447000C9447000C94470071
:100010000C9447000C9447000C9447000C94470044
:100020000C9447000C9447000C9447000C94470034
:100030000C9447000C9447000C9447000C94470024
:100040000C9447000C9447000C9447000C94470014
:100050000C94470011241FBECFE5D4E0DEBFCDBF16
:1000600010E0A0E6B0E0EEECF3E002C005900D92E7
:10007000AE37B107D9F720E0AEE7B0E001C01D927E
:10008000A338B207E1F70E9468010C94E5010C94D3
:1000900000002AB128612AB920B5266820BD9B013D
:1000A000AC0184E0220F331F441F551F8A95D1F7FE
:1000B00060E472E48FE090E00E94C3018FEF820F52
:1000C00089B9DA01C9010197A109B109892F9A2FCC
:1000D000AB2FBB2780BD08955F9BFECF8CB10895E9
:1000E0005D9BFECF8CB908950F931F93CF938C0126
:1000F000C0E0F801EC0FF11D8081882321F00E94FF
:100100007000CF5FF6CFCF911F910F91089588BBFC
:10011000D898D998DA9A0000DA988DEE92E0019793
:10012000F1F700C00000089588BBD89AD998DA9AF0
:100130000000DA9889EF90E00197F1F700C0000025
:1001400008958FEF8ABB87BB87E893E10197F1F7AA
:1001500000C0000088E30E9487008CE00E948700B6
:1001600086E00E94870081E00E94870080E80E946C
:10017000870080E00E94940081E00E94870080E870
:100180000C948700CF93DF93EC018991882319F0B9
:100190000E949400FACFDF91CF910895CF93DF931F
:1001A000EA01811106C060316CF4862F8F7080687F
:1001B00007C0813039F460312CF4862F8F70806C49
:1001C0000E948700CE01DF91CF910C94C20081E0A4
:1001D0000E94870080E80E94870080E00E949400CF
:1001E00081E00E94870080E80C9487008FE084BB48
:1001F0008FEF85BB089580E785BB8DEE92E0019778
:10020000F1F700C0000093B3907781E0903709F0D8
:1002100080E0089580E785BB8DEE92E00197F1F7CD
:1002200000C0000083B38077803759F087E893E1FE
:100230000197F1F700C0000093B3907781E0903709
:1002400009F480E00895CF930E940A01882351F1B8
:10025000E0E6F0E080E090E0C0E041E050E09A01AC
:10026000082E01C0220F0A94EAF7209525BBADEEB7
:10027000B2E01197F1F700C000009C9902C0C08164
:1002800006C09D9902C0C18102C09E9BC281019699
:1002900033968430910519F70E94FB008823E1F31F
:1002A0008C2F01C08FEFCF91089580917F0088330C
:1002B00069F480918000863349F480918100843311
:1002C00029F481E090918200923309F080E0089552
:1002D0000E94A1000E94F6008DE690E00E94C200FC
:1002E00011BA60E875E280E090E00E944900C0E049
:1002F00011E00E942301D82F8F3FD9F380917E0017
:10030000882359F0DA3219F08D2F0E9494008D2F36
:100310000E9470008C2FC82FECCF8D2F0E9494006C
:1003200081E08C0FEC2FF0E0E158FF4FD083843058
:1003300091F70E945501882389F0DB9A2FE38DE025
:1003400093E0215080409040E1F700C000001093FE
:100350007E000E94E70087E790E00EC0DC9A2FE362
:100360008DE093E0215080409040E1F700C0000014
:100370000E94E7008DE690E00E94C2008BB3877078
:100380008BBB80E0C8CFA1E21A2EAA1BBB1BFD01CC
:100390000DC0AA1FBB1FEE1FFF1FA217B307E40764
:1003A000F50720F0A21BB30BE40BF50B661F771FBC
:1003B000881F991F1A9469F760957095809590959C
:0E03C0009B01AC01BD01CF010895F894FFCF61
:1003CE002A30233738393435363132330070617381
:0E03DE0073776F72643A0073746570733A003F
:00000001FF
