:100000000C942A000C943C000C943C000C943C0092
:100010000C943C000C943C000C943C000C943C0070
:100020000C943C000C943E000C943C000C943C005E
:100030000C943C000C943C000C943C000C943C0050
:100040000C943C000C943C000C943C000C943C0040
:100050000C943C0011241FBECFE5D4E0DEBFCDBF21
:1000600020E0A0E6B0E001C01D92A236B207E1F7A1
:100070000E9462000C946B000C9400001F920F927F
:100080000FB60F9211248F939F9384E282BF8091C9
:1000900060009091610001969093610080936000F0
:1000A000843F910541F495B381E0892785BB109287
:1000B0006100109260009F918F910F900FBE0F9082
:1000C0001F90189582E083BF84E282BF81E089BFE0
:0A00D00084BB7894FFCFF894FFCFB3
:00000001FF
