:100000000C942A000C9470000C9447000C94470048
:100010000C9447000C9447000C9447000C94470044
:100020000C9447000C9449000C9447000C94470032
:100030000C9447000C9447000C9447000C94470024
:100040000C9447000C9447000C9447000C94470014
:100050000C94470011241FBECFE5D4E0DEBFCDBF16
:1000600010E0A0E6B0E0E8E2F1E002C005900D92F9
:10007000A236B107D9F720E0A2E6B0E001C01D9298
:10008000A436B207E1F70E9484000C9492000C940D
:1000900000001F920F920FB60F9211248F939F931F
:1000A00084E282BF809162009091630001969093F8
:1000B000630080936200843F910559F48091600051
:1000C000882319F085B3809585BB10926300109248
:1000D00062009F918F910F900FBE0F901F90189507
:1000E0001F920F920FB60F9211248F939F939091AE
:1000F000600081E08927809360009F918F910F902D
:100100000FBE0F901F90189582E083BF84E282BFDC
:1001100081E089BF9FEF94BB11BA90E49BBF85BF7C
:080120007894FFCFF894FFCFA3
:020128000100D4
:00000001FF
