:100000000C942A000C9447000C9447000C94470071
:100010000C9447000C9447000C9447000C94470044
:100020000C9447000C9447000C9447000C94470034
:100030000C9447000C9447000C9447000C94470024
:100040000C9447000C9447000C9447000C94470014
:100050000C94470011241FBECFE5D4E0DEBFCDBF16
:1000600010E0A0E6B0E0EAE8F2E002C005900D92F0
:10007000A837B107D9F720E0A8E7B0E001C01D928A
:10008000AC37B207E1F70E9417010C9443010C94BE
:10009000000088BBD898D998DA9A0000DA9881E2F3
:1000A0008A95F1F7089588BBD89AD998DA9A000012
:1000B000DA988BE08A95F1F708958FEF8ABB87BBBA
:1000C0008AED8A95F1F700C088E30E9449008CE030
:1000D0000E94490086E00E94490081E00E94490098
:1000E00080E80E94490080E00E94530081E00E9465
:1000F000490080E80C944900CF93DF93EC0189918B
:10010000882319F00E945300FACFDF91CF91089510
:10011000CF93DF93EA01811106C060316CF4862F22
:100120008F70806807C0813039F460312CF4862FDD
:100130008F70806C0E944900CE01DF91CF910C94AA
:100140007C0081E00E94490080E80E94490080E034
:100150000E94530081E00E94490080E80C9449000D
:100160008FE081BB8FEF82BB089580E782BB81E285
:100170008A95F1F790B3907781E0903709F080E0AD
:10018000089580E782BB81E28A95F1F780B380779A
:10019000803749F08AED8A95F1F700C090B39077E7
:1001A00081E0903709F480E00895CF930E94C10068
:1001B000882339F1E0E6F0E080E090E0C0E041E043
:1001C00050E09A01082E01C0220F0A94EAF7209508
:1001D00022BB21E22A95F1F7849902C0C08106C0B2
:1001E000859902C0C18102C0869BC2810196339667
:1001F0008430910531F70E94B5008823E1F38C2FFC
:1002000001C08FEFCF91089580917800883369F411
:1002100080917900863349F480917A00843329F4FF
:1002200081E090917B00923309F080E008950E9474
:100230005D000E94B0008DE690E00E947C00C8E75F
:10024000D0E00E94D500182F8F3FD9F30E945300B1
:10025000199320E0CC37D207A1F70E94040188232C
:1002600011F0DB9A01C0DC9A8FEF9FE722E081500A
:1002700090402040E1F700C000C08BB387708BBB7B
:0A0280000E94A100D8CFF894FFCF30
:10028A002A302337383934353631323300706173C6
:08029A0073776F72643A0000F3
:00000001FF
