:100000000C942A000C943F000C943F000C943F0089
:100010000C943F000C943F000C943F000C943F0064
:100020000C943F000C943F000C943F000C943F0054
:100030000C943F000C943F000C943F000C943F0044
:100040000C943F000C943F000C943F000C943F0034
:100050000C943F0011241FBECFE5D4E0DEBFCDBF1E
:1000600010E0A0E6B0E0E0E6F1E002C005900D92FD
:10007000AE36B107D9F70E94A7000C94AE000C94DD
:10008000000088BBD898D998DA9A85E08A95F1F76C
:100090000000DA988FED9EE20197F1F700C00000B2
:1000A000089588BBD89AD998DA9A85E08A95F1F7AD
:1000B0000000DA988FE99FE00197F1F700C0000097
:1000C00008958FEF8ABB87BB2FEF89EF90E0215017
:1000D00080409040E1F700C0000088E30E944100AA
:1000E0008CE00E94410086E00E94410081E00E9475
:1000F000410080E80C944100CF93DF93EC0189919B
:10010000882319F00E945100FACFDF91CF91089512
:10011000CF93DF93EA01811106C060316CF4862F22
:100120008F70806807C0813039F460312CF4862FDD
:100130008F70806C0E944100CE01DF91CF910C94B2
:100140007C0081E00E94410080E80C9441000E9404
:10015000610080E690E00E947C00FFCFF894FFCF22
:0E01600048656C6C6F20576F726C6421000054
:00000001FF
