:100000000C942A000C94B2000C9447000C94470006
:100010000C9447000C9447000C9447000C94470044
:100020000C9447000C9479000C9447000C94470002
:100030000C9447000C9447000C9447000C94470024
:100040000C9447000C9447000C9447000C94470014
:100050000C94470011241FBECFE5D4E0DEBFCDBF16
:1000600010E0A0E6B0E0E2EAF1E002C005900D92F7
:10007000A236B107D9F720E0A2E6B0E001C01D9298
:10008000A736B207E1F70E94C1000C94CF000C9490
:10009000000020916300309164002730310521F485
:1000A00081E0809362000EC02F3F8FEF380751F43C
:1000B000109260001092620010926400109263002F
:1000C00015BA089581E090E001C0880F2A95EAF7FB
:1000D00085BB20916200809163009091640022238F
:1000E00011F0019701C00196909364008093630022
:1000F00008951F920F920FB60F9211242F933F93E2
:100100004F935F936F937F938F939F93AF93BF931F
:10011000EF93FF9384E282BF809165009091660027
:1001200001969093660080936500843F910549F4A1
:100130008091600081110E94490010926600109227
:100140006500FF91EF91BF91AF919F918F917F914A
:100150006F915F914F913F912F910F900FBE0F9034
:100160001F9018951F920F920FB60F9211248F9324
:1001700081E0809360008F910F900FBE0F901F90D1
:10018000189582E083BF84E282BF81E089BF9FEF40
:1001900094BB11BA90E49BBF85BF7894FFCFF894CD
:0201A000FFCF8F
:0201A20001005A
:00000001FF
