:100000000C942A000C9447000C9447000C94470071
:100010000C9447000C9447000C9447000C94470044
:100020000C9447000C9487000C9447000C944700F4
:100030000C9447000C9447000C9447000C94470024
:100040000C9447000C9447000C9447000C94470014
:100050000C94470011241FBECFE5D4E0DEBFCDBF16
:1000600010E0A0E6B0E0EEE6FBE002C005900D92E5
:10007000AA36B107D9F720E0AAE6B0E001C01D9288
:10008000A237B207E1F70E9414010C94B5050C9455
:1000900000002AB128612AB920B5266820BD9B013D
:1000A000AC0184E0220F331F441F551F8A95D1F7FE
:1000B00060E472E48FE090E00E9452018FEF820FC3
:1000C00089B9DA01C9010197A109B109892F9A2FCC
:1000D000AB2FBB2780BD08955F9BFECF8CB10895E9
:1000E0005D9BFECF8CB908950F931F93CF938C0126
:1000F000C0E0F801EC0FF11D8081882321F00E94FF
:100100007000CF5FF6CFCF911F910F9108951F928E
:100110000F920FB60F9211242F933F934F935F933B
:100120006F937F938F939F93AF93BF93EF93FF93BF
:1001300080916C0090916D00843F910581F5369A15
:10014000349BFECF64B175B180E090E00E94AA01BB
:1001500023E23BED49EF5EE30E9410020E9474012E
:100160007F936F9384E690E09F938F938AE690E06D
:100170009F938F930E94CB0210926D0010926C009F
:1001800080916A000E94700080916B000E94700054
:100190000F900F900F900F900F900F9005C0019649
:1001A00090936D0080936C0084E282BFFF91EF9189
:1001B000BF91AF919F918F917F916F915F914F917F
:1001C0003F912F910F900FBE0F901F901895FC013B
:1001D00040E050E04E175F0734F52FED82E292E0E9
:1001E000215080409040E1F700C0000080916E00F7
:1001F00090916F00049721F410926F0010926E009E
:1002000020916E0030916F00B9016F5F7F4F709346
:100210006F0060936E00D901A05ABF4F9C9198BBAC
:100220004F5F5F4FD7CF0895CF93DF93CDB7DEB742
:100230002A970FB6F894DEBF0FBECDBF11BA8FE07C
:1002400087BB60E875E280E090E00E944900D098AA
:1002500087E886B980E487B982E083BF89B7816087
:1002600089BF84E282BF78940E946C008A3239F49C
:10027000CE0101960E94A5020E94E700F5CF2091D1
:10028000700030917100A9014F5F5F4F5093710072
:1002900040937000E1E0F0E0EC0FFD1FE20FF31F70
:1002A0008083E2CFA1E21A2EAA1BBB1BFD010DC069
:1002B000AA1FBB1FEE1FFF1FA217B307E407F50716
:1002C00020F0A21BB30BE40BF50B661F771F881FF2
:1002D000991F1A9469F760957095809590959B0188
:1002E000AC01BD01CF0108950E947B016894B1115A
:1002F0000C940A0208950E94EF0188F09F5798F02D
:10030000B92F9927B751B0F0E1F0660F771F881F1A
:10031000991F1AF0BA95C9F714C0B13091F00E9434
:100320000902B1E008950C940902672F782F8827FD
:10033000B85F39F0B93FCCF3869577956795B3955B
:10034000D9F73EF490958095709561957F4F8F4FCA
:100350009F4F0895E89409C097FB3EF490958095CF
:10036000709561957F4F8F4F9F4F9923A9F0F92F7B
:1003700096E9BB279395F695879577956795B795F9
:10038000F111F8CFFAF4BB0F11F460FF1BC06F5FDF
:100390007F4F8F4F9F4F16C0882311F096E911C0F1
:1003A000772321F09EE8872F762F05C0662371F012
:1003B00096E8862F70E060E02AF09A95660F771F26
:1003C000881FDAF7880F9695879597F9089557FD56
:1003D0009058440F551F59F05F3F71F04795880FB3
:1003E00097FB991F61F09F3F79F08795089512164A
:1003F00013061406551FF2CF4695F1DF08C01616F6
:1004000017061806991FF1CF8695710561050894A6
:100410000895E894BB2766277727CB0197F90895BD
:100420000E9423020C9494020E94860238F00E94DB
:100430008D0220F0952311F00C947D020C94830220
:1004400011240C940A020E94E70170F3959FC1F3F6
:10045000950F50E0551F629FF001729FBB27F00D72
:10046000B11D639FAA27F00DB11DAA1F649F6627C7
:10047000B00DA11D661F829F2227B00DA11D621F16
:10048000739FB00DA11D621F839FA00D611D221FD0
:10049000749F3327A00D611D231F849F600D211DB4
:1004A000822F762F6A2F11249F5750409AF0F1F037
:1004B00088234AF0EE0FFF1FBB1F661F771F881FA0
:1004C00091505040A9F79E3F510580F00C947D0259
:1004D0000C940A025F3FE4F3983ED4F38695779537
:1004E0006795B795F795E7959F5FC1F7FE2B880F46
:1004F000911D9695879597F9089597F99F6780E8DC
:1005000070E060E008959FEF80EC089500240A9465
:100510001616170618060906089500240A941216DE
:100520001306140605060895092E0394000C11F411
:10053000882352F0BB0F40F4BF2B11F460FF04C0BE
:100540006F5F7F4F8F4F9F4F0895FC01882799273A
:10055000E89421912032E9F3293010F02E30C8F3CD
:100560002B3241F02D3239F4689404C00E94C3024A
:10057000820F911D219120532A30C0F31EF49095D3
:1005800081959F4F08957AE0979F902D879F802DAA
:10059000910D11240895AEE0B0E0E1EDF2E00C948D
:1005A0008C050D891E8986E08C831A8309838FEF61
:1005B0009FE79E838D83AE01475E5F4F6F89788D85
:1005C000CE0101960E94ED02EF81F885E00FF11F48
:1005D00010822E96E4E00C94A805ABE0B0E0E3EFC7
:1005E000F2E00C947E056C017B018A01FC0117820C
:1005F0001682838181FFCCC1CE0101963C01F601B8
:100600009381F70193FD859193FF81917F01882369
:1006100009F4BAC1853239F493FD859193FF819134
:100620007F01853229F4B60190E00E94E404E7CF0F
:10063000912C212C312CFFE1F315D8F08B3279F07D
:1006400038F4803279F08332A1F4232D20611DC06B
:100650008D3261F0803369F4232D216016C0832D23
:100660008260382EE32DE4603E2E2AC0F32DF86020
:100670001DC037FC2DC020ED280F2A3040F08E32EF
:10068000B9F436FC81C1232D2064322E19C036FE08
:1006900006C08AE0989E200D1124922E11C0EAE037
:1006A0002E9E200D1124222EF32DF0623F2E08C025
:1006B0008C3621F4832D8068382E02C0883641F4B0
:1006C000F70193FD859193FF81917F018111B3CF54
:1006D000982F9F7D9554933028F40C5F1F4F9FE314
:1006E00099830DC0833631F0833771F0833509F07B
:1006F00059C021C0F801808189830E5F1F4F882473
:100700008394912C530113C02801F2E04F0E511C29
:10071000F801A080B18036FE03C0692D70E002C0F0
:100720006FEF7FEFC5010E94D9044C018201F32DC8
:10073000FF773F2E16C0280122E0420E511CF8011F
:10074000A080B18036FE03C0692D70E002C06FEF5B
:100750007FEFC5010E94CE044C01F32DF0683F2EBF
:10076000820133FC1BC0822D90E088169906B0F4FC
:10077000B60180E290E00E94E4042A94F4CFF501EF
:1007800037FC859137FE81915F01B60190E00E94B0
:10079000E40421102A9421E0821A91088114910422
:1007A00071F7E8C0843611F0893641F5F80137FE5B
:1007B00007C060817181828193810C5F1F4F08C0E7
:1007C00060817181072E000C880B990B0E5F1F4F03
:1007D000F32DFF763F2E97FF09C090958095709579
:1007E00061957F4F8F4F9F4FF0683F2E2AE030E09A
:1007F000A3010E942005882E861845C0853731F454
:10080000232D2F7EB22E2AE030E025C0932D997F34
:10081000B92E8F36C1F018F4883579F0B5C080371D
:1008200019F0883721F0B0C0E92FE061BE2EB4FE88
:100830000DC0FB2DF460BF2E09C034FE0AC0292F65
:100840002660B22E06C028E030E005C020E130E08E
:1008500002C020E132E0F801B7FE07C0608171817B
:10086000828193810C5F1F4F06C06081718180E09F
:1008700090E00E5F1F4FA3010E942005882E86186E
:10088000FB2DFF773F2E36FE0DC0232D2E7FA22E8F
:10089000891458F434FE0BC032FC09C0832D8E7EBF
:1008A000A82E05C0B82CA32C03C0B82C01C0B92CAD
:1008B000A4FE0FC0FE01E80DF11D8081803321F4FC
:1008C0009A2D997EA92E09C0A2FE06C0B394B394B6
:1008D00004C08A2D867809F0B394A3FC11C0A0FE51
:1008E00006C0B21488F4280C922C9B180EC0B214C7
:1008F00060F4B60180E290E00E94E404B394F7CF84
:10090000B21418F42B1802C0982C212CA4FE10C08D
:10091000B60180E390E00E94E404A2FE17C0A1FCAF
:1009200003C088E790E002C088E590E0B6010CC003
:100930008A2D867859F0A1FE02C08BE201C080E2C8
:10094000A7FC8DE2B60190E00E94E404891438F41B
:10095000B60180E390E00E94E4049A94F7CF8A9471
:10096000F301E80DF11D8081B60190E00E94E404DE
:100970008110F5CF222009F442CEB60180E290E04A
:100980000E94E4042A94F6CFF6018681978102C082
:100990008FEF9FEF2B96E2E10C949A05FC010590F6
:1009A000615070400110D8F7809590958E0F9F1F71
:1009B0000895FC016150704001900110D8F78095B6
:1009C00090958E0F9F1F08950F931F93CF93DF93E2
:1009D000FB01238121FD03C08FEF9FEF2CC022FF7D
:1009E00016C046815781248135814217530744F44C
:1009F000A081B1819D012F5F3F4F318320838C9374
:100A0000268137812F5F3F4F3783268314C08B01A8
:100A1000EC01FB010084F185E02D0995892BE1F6BD
:100A2000D80116968D919C911797019617969C93D5
:100A30008E931697CE01DF91CF911F910F9108955C
:100A4000FA01AA27283051F1203181F1E8946F93FF
:100A50006E7F6E5F7F4F8F4F9F4FAF4FB1E03ED0A5
:100A6000B4E03CD0670F781F891F9A1FA11D680F43
:100A7000791F8A1F911DA11D6A0F711D811D911D76
:100A8000A11D20D009F468943F912AE0269F1124EB
:100A90003019305D3193DEF6CF010895462F47704F
:100AA000405D4193B3E00FD0C9F7F6CF462F4F70AA
:100AB000405D4A3318F0495D31FD4052419302D008
:100AC000A9F7EACFB4E0A6959795879577956795AE
:100AD000BA95C9F700976105710508959B01AC01AE
:100AE0000A2E06945795479537952795BA95C9F7D5
:100AF000620F731F841F951FA01D08952F923F92B0
:100B00004F925F926F927F928F929F92AF92BF921D
:100B1000CF92DF92EF92FF920F931F93CF93DF93C9
:100B2000CDB7DEB7CA1BDB0B0FB6F894DEBF0FBE26
:100B3000CDBF09942A88398848885F846E847D8473
:100B40008C849B84AA84B984C884DF80EE80FD8075
:100B50000C811B81AA81B981CE0FD11D0FB6F894EB
:0E0B6000DEBF0FBECDBFED010895F894FFCFAC
:0A0B6E000402080125303264000083
:00000001FF
